:100000000C94BA010C94D7010C94D7010C94D7012D
:100010000C94D7010C94D7010C94D7010C94D70100
:100020000C94D7010C94D7010C94D7010C94D701F0
:100030000C94D7010C94220E0C94D7010C94D70188
:100040000C94D7010C94D7010C94D7010C94D701D0
:100050000C94D7010C94D7010C94D7010C94D701C0
:100060000C94D7010C94D701A714DC14EB140719D6
:100070000719071907190719071907190719071980
:100080000719071907190719071907190719071970
:10009000071907190719071907190719EE1407197E
:1000A0001115221539155B1580159215A015AE1581
:1000B000D615D615C316C316C316C316A414F9163F
:1000C000DD15EE15C317CE17461846184618461804
:1000D00046180719071907190719071907190719E2
:1000E0000719E117301846185344524956452E4116
:1000F0005452206E6F7420666F756E640045727284
:100100006F7220696E697469616C697A696E6720C3
:1001100066696C6573797374656D004572726F7290
:1001200020696E697469616C697A696E67205344ED
:100130002D436172642100506C6561736520696EA6
:10014000736572742053442D4361726421005344DB
:1001500072697665313520323031373131303220B5
:100160006279206B627200000500070B07209D0773
:10017000186020BC07A99B205C08205C08205D0754
:10018000207108A9008D8808202C07305020D00746
:100190004C1607A9718D0003A9018D0103A9FA8DE1
:1001A0000203A9408D0303A9008D0403A9308D0526
:1001B00003A9078D0603A9008D0803A9088D09036B
:1001C0002059E460A200A9E39D4403A9089D4503CA
:1001D000A91D9D4803A9009D49034CB3079848A257
:1001E00000A9D89D4403A9089D4503A90B9D480378
:1001F000A9009D490320B30768203B08A99B205C08
:10020000084C1607A200A9899D4403A9089D45032F
:10021000A94F9D4803A9009D4903A90B9D420320B6
:1002200056E460A000B90009F060AA98488A205CF2
:100230000868A8C84CBE07A97D205C08A90085CB2A
:10024000A93085CC202408A000B1CB8C8608203BA7
:1002500008A920205C08EE8708AC8608C8C008D032
:10026000E8A99B205C08AD8708D00AEE8808AD8815
:1002700008C908F015A9081865CB85CBA90065CC7D
:1002800085CC202408A0004CE20760AD8808203B04
:1002900008AD8708203B08A93A205C08A920205C0B
:1002A0000860486A6A6A6A204E08205C0868204E26
:1002B00008205C0860290FC90A100418693060180A
:1002C000693760A200A00B8C4203A0008C4803A0F9
:1002D000008C49032056E460A200A0078C4203A0D2
:1002E000008C4803A0008C49032056E46000000005
:1002F00011121212121212121212121212121212DF
:100300001212121212121212059B7C736472697619
:10031000652D6E67206572726F72207265706F72E4
:10032000743A7C9B1A121212121212121212121228
:10033000121212121212121212121212039B9B7339
:10034000696F206572726F723A203C7265747572C3
:100350006E3E20666F7220415652206D656D6F7241
:10036000792064756D709B6364696E6F70737578C6
:10037000585B000011241FBECFEFD8E0DEBFCDBF19
:1003800011E0A0E0B1E0E0E5FFE302C005900D92CE
:10039000A231B107D9F724E0A2E1B1E001C01D927A
:1003A000A33EB207E1F70E942E0F0C94A61F0C94F7
:1003B000000046B1407F882371F024E030E0281B24
:1003C000310981E090E0022E01C0880F0A94EAF71B
:1003D0009FE09827492B48B90895EFEAF3E081554B
:1003E0009C4F1192E817F907E1F7089580E091E03A
:1003F0000C94ED01E62FF0E0E155FC4F6AE00E941D
:100400002119806380839063918308950F931F93D4
:10041000CF93DF9300D000D01F92CDB7DEB78C0111
:1004200040E064E070E0CE0101960E94D10EEFE260
:10043000FBE03197F1F700C04C9BFECFE5E6F1E021
:100440003197F1F700C00000882319F00E94820E56
:1004500076C089818F7B813309F071C081E40E946D
:10046000AF0E8A818A3F11F58FE29BE00197F1F789
:1004700000C083E40E94AF0EEFE2FBE03197F1F79A
:1004800000C060E078E080E091E00E94BD0EE0E016
:10049000F1E090E08191890F891708F48F5FE115F1
:1004A00099E0F90709F449C0982FF4CF833571F426
:1004B00088E18093AF038FEF8093B00380EE809349
:1004C000B1031092B20384E090E01DC0823579F54B
:1004D000EB81FC81E630F10550F5F695FE2FEE2715
:1004E000F795E795E13082E0F80780F4AFEAB3E0F2
:1004F000E951FF4F84918D93319694E0AF32B90763
:10050000C9F780E890E00E940F0F19C0E038F24070
:1005100011F000581F4FAFEAB3E0F80184918D93BA
:100520000F5F1F4F94E0AF32B907B9F7EACFEFE2A0
:10053000FBE03197F1F700C085E40E94AF0E0F9009
:100540000F900F900F900F90DF91CF911F910F910F
:1005500008958F929F92AF92BF92CF92DF92EF92C7
:10056000FF920F931F93CF93DF93CDB7DEB76097C2
:100570000FB6F894DEBF0FBECDBF6B017C018E01BC
:100580000F5F1F4F80E1F80111928A95E9F7C701CB
:10059000B601605F7F4F8F4F9F4F0E946F0D6115B7
:1005A00071058105910569F126E932E03A832983D5
:1005B0004601570124E0B694A794979487942A950E
:1005C000D1F79C828B82F1E0CF16F8E0DF06F2E0F3
:1005D000EF06F10418F020E031E002C020E830E03E
:1005E0003E832D830E94CC0480E1F801ABEAB1E0A8
:1005F00001900D928A95E1F780E00E94A10480E0CD
:1006000004C082E00E94820E81E060960FB6F894EA
:10061000DEBF0FBECDBFDF91CF911F910F91FF9035
:10062000EF90DF90CF90BF90AF909F908F90089504
:100630002A9A229A2D9A259A24982C9A239A8DB533
:100640008E7F8DBD83E58CBD8DB508950DB407FEFD
:10065000FDCF8EBD08958EBD0DB407FEFDCF8EB5C6
:1006600008958FEF0C942B0339E04150510978F035
:10067000FB01E40FF51F208198E0880FE22FE827A7
:10068000E7FD8327220F9150C1F78F77EECF0895B2
:100690000C9418031F93CF93DF9300D000D01F92C8
:1006A000CDB7DEB74A835B836C837D8380648983A7
:1006B0000E942B038D810E942B038C810E942B03AF
:1006C0008B810E942B038A810E942B0341E050E022
:1006D000BE016F5F7F4F80E00E94340344E050E032
:1006E000BE016E5F7F4F0E943403880F81600E94BD
:1006F0002B031FEF0E943103115011F087FDFACF39
:100700000F900F900F900F900F90DF91CF911F914E
:100710000895CF932A980E944A03C82F2A9A0E94CC
:1007200031038C2FCF910895FF920F931F93CF9396
:10073000DF938FEF9FEFDC018093AB039093AC03CB
:10074000A093AD03B093AE031092AF048091DB048D
:100750008E7F8093DB041AE00E9431031150E1F791
:1007600040E050E0BA0180E00E9489038093AB0131
:10077000813009F075C02A984AEA51E060E070E0E3
:1007800088E00E944A03082F813091F4CBEAD1E03F
:100790000E943103899381E0CF3AD807C9F780914D
:1007A000AD01813021F48091AE018A3A09F006E072
:1007B0002A9A0E943103063008F054C00FEF40E03F
:1007C00050E0BA0187E30E948903F82E81E08F157B
:1007D00068F140E050E060E070E489E20E94890343
:1007E000811120C02A9840E050E0BA018AE30E94BB
:1007F0004A03F82ECFEAD1E00E943103899381E0C9
:10080000C33BD807C9F72A9A0E9431039091AF01E0
:1008100096FB992790F98091DB0490FB80F98093F7
:10082000DB0404C0015059F613E01DC00023E1F3BE
:1008300085E0F81659F040E052E060E070E080E1B9
:100840000E948903882379F015E00DC040E050E054
:10085000BA0181E00E948903882369F314E003C090
:1008600011E001C012E0812FDF91CF911F910F9114
:10087000FF900895CF93DF93AB01BC012A9880913C
:10088000DB0480FD07C089E0440F551F661F771FFA
:100890008A95D1F781E10E944A03811115C00E9417
:1008A00031038E3FE1F7CBEAD1E00E943103899317
:1008B00083E0CB3AD807C9F70E9431030E94310385
:1008C0002A9A0E94310380E0DF91CF910895CF935F
:1008D000DF93AB01BC0144982A988091DB0480FD32
:1008E00007C099E0440F551F661F771F9A95D1F7EF
:1008F00088E10E944A03811121C00E9431038EEFDA
:100900000E942B03CBEAD1E089910E942B0383E064
:10091000CB3AD807C9F70E9431030E9431030E94E5
:100920003103982F9F71953049F40E943103882339
:10093000E1F32A9A0E943103449A80E0DF91CF913B
:100940000895CF934B9917C04498882381F0C0E154
:100950006091AB037091AC038091AD039091AE03B5
:100960000E946704882351F0C15091F706C081E0CE
:100970008093AF0405C08FEF04C0FFCF1092AF0487
:1009800080E0CF9108958091AF04882321F081E029
:100990000E94A104FACF0895CF92DF92EF92FF92C6
:1009A000CF936B017C018091AB039091AC03A0913C
:1009B000AD03B091AE03C816D906EA06FB0611F4E2
:1009C0008FEF16C00E94C304C0E0C701B6010E94A9
:1009D0003A04C150882319F0C111F7CFF1CFC0926A
:1009E000AB03D092AC03E092AD03F092AE0380E093
:1009F000CF91FF90EF90DF90CF900895CF92DF924C
:100A0000EF92FF92C0902B01D0902C01E0902D012D
:100A1000F0902E01611571058105910569F48091B1
:100A20002F0190913001A7019601281B390B410934
:100A30005109CA01B9010FC09B01AC012250310913
:100A400041095109A0913301B0E00E9478196C0D61
:100A50007D1D8E1D9F1DFF90EF90DF90CF9008951C
:100A60004F925F926F927F928F929F92AF92BF92BE
:100A7000CF92DF92EF92FF920F931F93CF93DF936A
:100A800060E070E0CB010E94CC048111E9C0C0910C
:100A90006D038090710390907203A0907303B090E7
:100AA0007403C501B4010E94CC04E82F8111DAC09F
:100AB0000091BC011091BD0184E0169507958A95BF
:100AC000E1F71093300100932F018091C1019091C3
:100AD000C201009719F0A0E0B0E008C08091CF01FA
:100AE0009091D001A091D101B091D20180932701C2
:100AF00090932801A0932901B0932A01C090B901D5
:100B0000D090BA01E12CF12CA091BB0120912701DA
:100B1000309128014091290150912A01B0E00E94B2
:100B2000781920E030E08C0C9D1CAE1CBF1C240109
:100B30003501460E571E681E791E400E511E621E5C
:100B4000731E40922B0150922C0160922D017092E5
:100B50002E014091BE015091BF014115510521F078
:100B60002A01612C712C08C04090CB015090CC011F
:100B70006090CD017090CE01461A570A680A790A32
:100B80004C185D086E087F08401A510A620A730A01
:100B900040921F0150922001609221017092220127
:100BA0008091B801809333018091B6019091B70193
:100BB000909332018093310180922301909224011D
:100BC000A0922501B09226018FEF9FEFDC01809368
:100BD000DC049093DD04A093DE04B093DF04CD30F9
:100BE00038F4CB30A8F4C43029F0C630E9F502C09F
:100BF000CE30D1F5A091B604B091B70414961D92F1
:100C00001D921D921C9217978091DB048D7F13C05B
:100C10008091D7019091D801A091D901B091DA01CA
:100C2000C091B604D091B7048C839D83AE83BF83FB
:100C30008091DB0482608093DB04A091B604B091C4
:100C4000B70414968D919D910D90BC91A02D809329
:100C5000340190933501A0933601B093370105C05C
:100C6000E1E003C0E2E001C0E3E08E2FDF91CF912D
:100C70001F910F91FF90EF90DF90CF90BF90AF90BA
:100C80009F908F907F906F905F904F9008958F927C
:100C90009F92AF92BF92CF92DF92EF92FF922091FC
:100CA000DB0421FF0EC042E0660F771F881F991FEB
:100CB0004A95D1F7CC24CA94DC2CEC2C5FE0F52EBD
:100CC00009C0660F771F881F991FCC24CA94DC2C9B
:100CD000E12CF12C209131013091320140E050E0C3
:100CE0000E9441194B015C01609123017091240124
:100CF0008091250190912601620F731F841F951F1B
:100D00000E94CC04F401E555FE4F6081718182811F
:100D100093816C217D218E219F21FF90EF90DF90A8
:100D2000CF90BF90AF909F908F9008952F923F9259
:100D30004F925F926F927F928F929F92AF92BF92EB
:100D4000CF92DF92EF92FF920F931F93CF93DF9397
:100D5000CDB7DEB72B970FB6F894DEBF0FBECDBF71
:100D60003C016A83E091B604F091B704C480D58059
:100D7000E680F7808091DC049091DD04A091DE0490
:100D8000B091DF04C816D906EA06FB0651F0C092FE
:100D9000DC04D092DD04E092DE04F092DF041092D5
:100DA000E0048091E004882389F020911C013091B7
:100DB0001D0138872F832615370598F062167306B4
:100DC00029F4813019F43A81332359F0C701B6016F
:100DD0000E94FE044B015C0110E018861F821982FC
:100DE0004EC00091120120901801309019014090DE
:100DF0001A0150901B01C0901301D0901401E09093
:100E00001501F0901601109117011982520141014C
:100E10008FEF881A980AA80AB80AC201B1010E9485
:100E2000CC04E0E20E9FD0011124A555BE4FBE8335
:100E3000AD83BD01605E7F4FAD81BE81BC91BB873C
:100E4000BB2309F4E9C0B53EF9F48D819E818096FB
:100E50009E838D830F5F605E7F4F003169F7C11401
:100E6000D104E104F10409F0C6C0212F30E08091E3
:100E70002F01909130012817390708F0B5C01F5F86
:100E80001401250100E0C2CFDB0155978C918F3012
:100E900009F04CC02A812223C1F23B85832F90E0C8
:100EA00001978F709927ADE0A89FA001A99F500DD1
:100EB000112441555C4F5A87498780E090E0AD810D
:100EC000BE81A80FB91F11963C91E985FA8531932F
:100ED000FA87E98702968A30910589F7DA01159633
:100EE00080E090E02D813E81280F391FF901368581
:100EF0003D9302968C309105A9F7DB0114978C91F4
:100F0000DA011B968C93DB0112978C91FA0184878E
:100F1000FB85F6FF03C0DA011D961C922B852F700E
:100F2000213009F092CF31E039838FCF29812223FC
:100F300061F02F8138852615370509F46FC02F5FC2
:100F40003F4F38872F83198280CF3B853E3239F45B
:100F5000DB015F979C91903211F484FD76CF83FD85
:100F600074CF2F81388526153705B9F58D819E817F
:100F7000AFEAB3E0FC012191CF012D93F3E0AA3B4E
:100F8000BF07C1F71092BA032A81222309F448C08F
:100F90001092BB038091B9038093BA038091B80388
:100FA0008093B9038091B7038093B8038091AF0316
:100FB0008E3219F08EE28093B7038FEA93E0DC0162
:100FC000FC012191CF01203211F02C931196FC01EC
:100FD00020812111F5CF1C9223C02F8138852F5FEE
:100FE0003F4F38872F8331CF9091DB04892F827058
:100FF00091FD45CF77C080913301181708F43FCF9A
:10100000C701B6010E9447066B017C010E94FE04E5
:101010004B015C0110E033CF80E003C082E001C0EF
:1010200081E0A091B604B091B704ED81FE812489DE
:101030003589A90160E070E0BA0155274427228D67
:10104000338D4901A12CB12C482959296A297B29C2
:101050004D935D936D937C93139751967C926E9212
:101060005097448D558D668D778D52964D935D9337
:101070006D937C93559793859093B004278930E0C6
:10108000322F22279689292B3093B4042093B3045E
:10109000218D30E0322F2227908D292B3093B204FE
:1010A0002093B1048823E9F02F81388530931D0106
:1010B00020931C0100931201209218013092190113
:1010C00040921A0150921B01C0921301D092140158
:1010D000E0921501F0921601109317018093E0043D
:1010E00001C080E02B960FB6F894DEBF0FBECDBFD7
:1010F000DF91CF911F910F91FF90EF90DF90CF90F4
:10110000BF90AF909F908F907F906F905F904F9027
:101110003F902F900895CF92DF92EF92FF92CF935E
:10112000DF936B017C01E091B604F091B7048485F4
:101130009585A685B785C816D906EA06FB0660F42C
:1011400080819181A281B38180879187A287B387B3
:101150001486158616861786C091B604D091B704FA
:101160008C859D85AE85BF858C159D05AE05BF051B
:10117000D1F0688579858A859B850E9447066887B6
:1011800079878A879B87E091B604F091B7048485BC
:101190009585A685B7850196A11DB11D8487958784
:1011A000A687B787D9CF688579858A859B85DF91A2
:1011B000CF91FF90EF90DF90CF9008952F923F92C4
:1011C0004F925F926F927F928F929F92AF92BF9257
:1011D000CF92DF92EF92FF920F931F93CF93DF9303
:1011E000CDB7DEB72B970FB6F894DEBF0FBECDBFDD
:1011F0008D832A013B018901A091330120913101A6
:1012000030913201E091B604F091B704828893885E
:10121000A488B588481559056A057B0518F000E0D3
:1012200010E0E4C0A90160E070E049835A836B8359
:101230007C83B0E00E9469196B017C01C501B40197
:1012400064197509860997096E837F838887998752
:10125000C301B201A70196010E94411949015A0137
:10126000C701B6010E941119461A570A680A790A7D
:10127000C301B20129813A814B815C810E944119ED
:1012800069017A0169817A818B819C810E9411199F
:10129000461A570A680A790AC501B4010E948B08E8
:1012A000E091B604F091B7046085718582859385DD
:1012B0000E94FE046C0D7D1D8E1D9F1D0E94CC049E
:1012C0004FEA53E05B874A87B80161557C4F1B01A9
:1012D0008E819F81A885B98589839A83AB83BC83DE
:1012E0000E811F8169817A81061B170B4A855B85F8
:1012F0004215530509F44BC08091310190913201A0
:10130000A0E0B0E0481659066A067B06C0F19D8150
:101310009130E1F0AFEFCA1ADA0AEA0AFA0A8091CC
:10132000330190E0A0E0B0E0C816D906EA06FB065B
:1013300098F0BFEF8B1A9B0AAB0ABB0AC501B40138
:101340000E948B08C12CD12C760106C080E00E943F
:10135000A1048823F9F263CFE091B604F091B704B9
:1013600060857185828593850E94FE046C0D7D1DCC
:101370008E1D9F1D0E94CC04412C512C32014981AD
:101380005A816B817C81452B462B472B21F45D8153
:10139000513061F526C0F201E555FE4F6D81613097
:1013A00021F4AA85BB858C9103C08081EA85FB85E9
:1013B000808349815A816B817C8141505109610947
:1013C000710949835A836B837C835FEF451A550A01
:1013D000650A750A4A855B854F5F5F4F5B874A8761
:1013E0007FCF80E00E94A104811119CFC8012B9604
:1013F0000FB6F894DEBF0FBECDBFDF91CF911F9126
:101400000F91FF90EF90DF90CF90BF90AF909F90A3
:101410008F907F906F905F904F903F902F900895A6
:101420002F923F924F925F926F927F928F929F92F4
:10143000AF92BF92CF92DF92EF92FF920F931F93E2
:10144000CF93DF93CDB7DEB7A2970FB6F894DEBF88
:101450000FBECDBF9C8B8B8B78A36F8FDC014D9023
:101460005D906D907C90BFEF4B1A5B0A6B0A7B0A14
:101470002091DB04809131019091320121FF12C053
:10148000FC01F695E795F695E795FA87E9872FEF42
:101490003FEF4FEF5FE02F87388B498B5A8B44E04B
:1014A00050E00FC0DC01B695A795BA87A9872FEF4A
:1014B0003FEF40E050E02F87388B498B5A8B42E05A
:1014C00050E05C874B8789859A854C01A12CB12C13
:1014D000C301B201A50194010E94411929833A83F5
:1014E0004B835C83C501B4010E9411196D837E8317
:1014F0008F839887C0902301D0902401E09025012C
:10150000F0902601C20ED31EE41EF51E8091270125
:1015100090912801A0912901B0912A0140912301C5
:10152000509124016091250170912601840F951F2F
:10153000A61FB71FC816D906EA06FB0608F0CBC0DF
:10154000C701B6010E94CC04C301B201A5019401F8
:101550000E9441197E8B6D8B409023015090240195
:1015600060902501709026010091270110912801BB
:101570002091290130912A01400E511E621E731ED6
:10158000A1E04A1A51086108710820911F013091A9
:10159000200140912101509122012F8B388F498FDA
:1015A0005A8FA09133012A2F30E040E050E02B8F7A
:1015B0003C8F4D8F5E8FAB85BC85A69FA001A79FFA
:1015C000500DB69F500D112445555E4F5E874D87D7
:1015D000212C312C1A82198229813A814D895E8908
:1015E000240F351F3AA329A389859A85281739071F
:1015F00008F05CC0C414D504E604F704F1F46F8964
:10160000788D898D9A8D2B8D3C8D4D8D5E8D0E94B0
:101610004119CA01B901A50194010E9441196F5FE6
:101620007F4F8F4F9F4FE9A1FAA18F0120E030E05B
:101630006017710782079307C8F1ED85FE85E20DFB
:10164000F31D80819181A281B3812F8538894989D9
:101650005A8982239323A423B52349815A814F5F5A
:101660005F4F5A834983EB85FC852E0E3F1E892BE5
:101670008A2B8B2B09F0B0CF8D809E80AF80B884F1
:1016800029A13AA1820E931EA11CB11CAB89BC8971
:101690008D929D92AD92BC921397EF8DF8A1C0826E
:1016A000D182E282F38280E090E017C02D813E81FA
:1016B0004F815885280D391D4A1D5B1D2D833E83A2
:1016C0004F8358873FEFC31AD30AE30AF30A412C2A
:1016D000512C32011BCF81E090E0A2960FB6F89416
:1016E000DEBF0FBECDBFDF91CF911F910F91FF9055
:1016F000EF90DF90CF90BF90AF909F908F907F90B2
:101700006F905F904F903F902F9008952F923F924F
:101710004F925F926F927F928F929F92AF92BF9201
:10172000CF92DF92EF92FF920F931F93CF93DF93AD
:10173000CDB7DEB76D970FB6F894DEBF0FBECDBF45
:101740002C014A015B01C0901801D0901901E09072
:101750001A01F0901B0160901201712C2FEF621A98
:10176000720A3FE0632277246114710429F44FEF79
:10177000C41AD40AE40AF40A8091DB0481FF0DC084
:101780006FEF7FEF8FEF9FE06E877F87888B998B5E
:1017900084E090E09D878C870CC02FEF3FEF40E006
:1017A00050E02E873F87488B598B42E050E05D87A1
:1017B0004C8719821A821B821C82BE016B5F7F4F8D
:1017C000CE0101960E94100A892B29F060E070E09A
:1017D00080E090E06BC1C701B6010E94CC04830198
:1017E000E5E0000F111FEA95E1F705551E4F8981CD
:1017F0009A81AB81BC81F801B58BA48B938F828FCA
:1018000048E050E0B201C8010E94831981E494E5E8
:10181000A2E5F80180879187A287848E958EA68E97
:10182000B78E80E2838780E00E94A1048111CECF31
:1018300049805A806B807C80C301B2010E94FE0403
:101840006E8B7F8B888F998F209031013090320181
:10185000B0913301B987910140E050E0C501B40176
:101860000E944119CA01B901E9852E2F30E040E0FC
:1018700050E00E9441192A8B3B8B4C8B5D8B2A894F
:101880003B893B872A874985429D9001439D300DC6
:10189000112440E050E0C501B4010E944119672BBA
:1018A000682B692B31F46A897B89615071097B87C8
:1018B0006A87C1016C857D850E942D199B0140E0DE
:1018C00050E0C301B2010E9441198091230190911F
:1018D0002401A0912501B0912601280F391F4A1F2C
:1018E0005B1F2D833E834F835887212C312C198613
:1018F0008C859D854C01A12CB12C8091310190915A
:1019000032016C857D850E942D199B0140E050E0DD
:1019100069817A818B819C810E9441199B01AC0174
:101920004D805E806F807884BE016B5F7F4FCE01FB
:1019300001962A8F3B8F4C8F5D8F0E94100A2A8D53
:101940003B8D4C8D5D8D892B29F099859F5F998703
:101950003B862A868D819E81AF81B88548165906BF
:101960006A067B0661F0C301B2012A8F3B8F4C8F60
:101970005D8F0E94CC045D8D4C8D3B8D2A8D8091B6
:10198000DB04AA85BB852A163B0630F581FF18C00B
:10199000C501B4010E941119FB01E555FE4F898173
:1019A0009A81AB81BC812E853F85488959898223E4
:1019B0009323A423B52380839183A283B38329C077
:1019C000C501B4010E941119FB01E555FE4F898143
:1019D0009A81918380831DC081FF10C0C501B4012D
:1019E0000E941119FB01E555FE4F4E855F85688900
:1019F000798940835183628373830BC0C501B4012D
:101A00000E941119FB01E555FE4F6FEF7FEF7183C7
:101A1000608380E00E94A1046091270170912801F9
:101A20008091290190912A01640D751D861D971DD5
:101A30000E9467047FEF271A370A8A859B858215E3
:101A4000930508F05ACF9985992321F1C701B60172
:101A50000E94CC0420913301809131019091320198
:101A6000289FA001299F500D11242A853B852F5FB7
:101A70003F4F429FC001439F900D529F900D1124F4
:101A8000A0E0B0E0F801848F958FA68FB78F81E03A
:101A90000E94A10480911C0190911D0160E00196BB
:101AA0000E9496066E897F89888D998D6D960FB6F6
:101AB000F894DEBF0FBECDBFDF91CF911F910F9184
:101AC000FF90EF90DF90CF90BF90AF909F908F905E
:101AD0007F906F905F904F903F902F9008954F921E
:101AE0005F926F927F928F929F92AF92BF92CF92AE
:101AF000DF92EF92FF920F931F93CF93DF93CDB7B7
:101B0000DEB72B970FB6F894DEBF0FBECDBF2B010B
:101B10003C011B861A86611571058105910521F42A
:101B200060E070E0CB0177C040913301209131013A
:101B300030913201429FC001439F900D1124A0E0DB
:101B4000B0E0DC019927882784159505A605B7051F
:101B500038F3E091B604F091B7048091DC049091E1
:101B6000DD04A091DE04B091DF0484839583A68315
:101B7000B78380E090E000E010E06E012AE0C20E42
:101B8000D11CF0E0AF2EF1E0BF2EAFEA8A2EA3E029
:101B90009A2E7C012FEFE21AF20A60E00E9496066C
:101BA0008823B1F0DF92CF92BF92AF929F928F9233
:101BB0000E94B4198A859B850F900F900F900F900B
:101BC0000F900F900817190708F48C01C701E1CF97
:101BD000EA94EF2809F4A4CF0F5F1F4F003127E2EA
:101BE000120708F09DCF1F930F9388E091E09F9319
:101BF0008F938E010F5F1F4F1F930F930E949219B7
:101C0000B301A201C8010E94860B0F900F900F90A4
:101C10000F900F900F902B960FB6F894DEBF0FBE6B
:101C2000CDBFDF91CF911F910F91FF90EF90DF908B
:101C3000CF90BF90AF909F908F907F906F905F906C
:101C40004F9008951F920F920FB60F9211242F9369
:101C50008F939F9380911E019091E104882341F01E
:101C600028B1892F8095822388B910921E011AC04D
:101C700088B1892B88B98091E204811106C08091D6
:101C8000E1048F7E8093E10403C081508093E204DD
:101C90008091E104811103C01092810003C081E0B2
:101CA00080931E019F918F912F910F900FBE0F90E7
:101CB0001F90189580959091E10498239093E104EA
:101CC0000895662319F061506093E2049091E10455
:101CD000982B9093E10480916F00816080936F0056
:101CE000109285001092840098B18091E104809553
:101CF000892388B983B5816083BD83E080938100A7
:101D000078940895682F80E10C94610EFC01680FAF
:101D1000791F80E0E617F70739F09191980F98172F
:101D200008F49F5F892FF6CF08959091C00095FF2A
:101D3000FCCF90E09093C5008093C40080E2809334
:101D4000C00088E18093C10087E08093C200809149
:101D5000C00087FF03C08091C600F9CF089590911D
:101D6000C00095FFFCCF8093C60008958091C0000D
:101D700087FFFCCF8091C60008950F931F93CF93E8
:101D8000DF938B01EC01080F191FC017D10721F059
:101D900089910E94AF0EF9CFDF91CF911F910F91E2
:101DA0000895CF93FC019C01260F371F50E0C0918E
:101DB000B804A9B1A071B0E0A417B507A9F4A9B1FE
:101DC000A47EAC1313C0A091C000A7FFF2CFC091B6
:101DD000C600E217F30731F40E94860EC81741F0DF
:101DE00080E807C0C193E3CF81E003C082E001C077
:101DF00080E0CF91089540E10E94D10EEBEFFDE02D
:101E00003197F1F700C0882329F08EE40E94AF0ECD
:101E10008FEF089581E40E94AF0E80E00895CF9384
:101E2000DF93EC018FE29BE00197F1F700C083E4C0
:101E30000E94AF0E8BEC92E00197F1F700C000001A
:101E4000BE018FEA93E00E94BD0EBE018FEA93E0CF
:101E50000E94860EDF91CF910C94AF0ECF93DF934B
:101E6000CDB7DEB765970FB6F894DEBF0FBECDBF16
:101E700087B18F6387B985B1836085B984B18C7F61
:101E800084B98BB18C6F8BB98AB183708AB9449A4B
:101E900089B1847E8093B8041A821C821092B504A2
:101EA00080E690E00E94541E8B8386B18F6388B9D0
:101EB0008EE20E94950E45984A9B07C04C99FCCF34
:101EC00087E391E00E940602F7CF0E94480324E8CE
:101ED0003CEE4AE0215030404040E1F700C00000B5
:101EE0000E949403882359F00E94820E4A99D4CF0D
:101EF0004C99FCCF8BE191E00E940602F7CF8DB5A3
:101F000081608DBD8CB58D7F8CBD8CB58E7F8CBD79
:101F100010924E011092650110927C011092930173
:101F20001092AA01198288E391E09093B7048093FC
:101F3000B6040E943005811103C000E010E01EC00D
:101F40008B5F0E94820E4A99A7CF4C99FCCF8DEFF0
:101F500090E00E940602F7CFFFEFCF1ADF0A2AEBCC
:101F6000E21623E0F206D1F0F701B1907F01C6013D
:101F70000E94541EB81681F30F5F1F4F60E0C80126
:101F80000E949606882309F452C0E1E6CE2EE0E0D6
:101F9000DE2EFFEAEF2EF3E0FF2EE6CFE091B6044F
:101FA000F091B70480819181A281B381808791876C
:101FB000A287B387148615861686178620E130E03F
:101FC00040E050E0BA0180E00E94DE080091B604D3
:101FD0001091B70481E0F801868B8091B403909151
:101FE000B303892B813011F481E2868BF801628979
:101FF0007389848995896051710981099109F688ED
:10200000F5FE05C020E031E040E050E004C020E8EB
:1020100030E040E050E00E944119213D324041054E
:102020005105E0F08F2D8068F801868B17C0E09194
:10203000B604F091B704168A898181110CC093B15E
:10204000937084E0891B898306C04C9904C088EE94
:1020500090E00E9406024A9BF8CF1ECF89810E9421
:10206000D90166246394459A812C912C5401C12C8A
:10207000D12C760114E001E077E1572E4C9B93C000
:1020800099B1947E8091B804981799F14A9904CF38
:10209000903AA1F018F49036C1F01EC0903C19F0AF
:1020A000903E31F019C0C12CD12C7601C39414C0DC
:1020B000C114D104E104F10479F034CF8981823074
:1020C00010F0815006C0198307C08981843018F44C
:1020D0008F5F898301C0098389819A8B0E94D9010E
:1020E0009A899093B8048DEF96E00197F1F700C0BC
:1020F0000000C114D104E104F10409F440C091E2EC
:10210000C91691EAD90697E0E906F10478F18981C8
:10211000882391F190E0589EF001599EF00D112412
:10212000E85CFE4F268923FF10C0277F268BE4E062
:10213000F0E0E81BF90BCF01F62D01C0FF0F8A95E7
:10214000EAF78F2F0E945A0E17C02860268B24E0D2
:1021500030E0281B390BC90160E0362D01C0330F78
:102160008A95EAF7832F0E94610E06C04FEFC41ACA
:10217000D40AE40AF40A03C0C12CD12C760151EA36
:10218000851650EF950659E1A506B10430F00E947E
:10219000C304812C912C540171CF8FEF881A980AB7
:1021A000A80AB80A6BCF40E064E070E0CE0109965F
:1021B0000E94D10EEFE2FBE03197F1F700C04C9B9B
:1021C000FECFE5E6F1E03197F1F700C0000088238B
:1021D000A1F081FD48CF8B81883229F081E09A817E
:1021E000911180E08A838A81882319F08B818A5F2C
:1021F00001C08EE20E94950E36CF29858FEC820FAA
:1022000030E08430B0F483B1837044E350E0481B85
:10221000510979802417350709F1872D90E0C09680
:1022200028173907B9F483B1837054E0752E781AF2
:1022300015C043B1437084E790E0841B91092817CF
:10224000390709F010CF8A858055843008F062C3C1
:1022500080E389877984F72DFF707F2E27E1729EB6
:10226000F0011124E85CFE4FF093B704E093B6044C
:102270009689892F897009F4F6CE8A85833509F409
:10228000D8C0292F2B7F268B823209F4BAC018F4CC
:10229000813241F0CEC0803509F4E3C0873509F4BE
:1022A000E0C0C7C093FF11C081E40E94AF0E8091CF
:1022B000B504823029F460E87EEC82E090E0AAC0A8
:1022C00060E078E681E090E0A5C094FF05C080E082
:1022D00098E6A1E0B0E004C080E198E6A1E0B0E0BB
:1022E0002091B504233009F49CC021110AC0428911
:1022F000538964897589481759076A077B0709F06C
:1023000090C08091B504823029F400E011E004C04F
:1023100027FF87C000E810E01092B504E091B604F2
:10232000F091B704868986FD7CC083FF12C0877F49
:10233000868B84E090E087199109362D01C0330F18
:102340008A95EAF7832F0E945A0E872D0E94D901A1
:1023500003C081E40E94AF0E0E94F601E091B60432
:10236000F091B704868984FF04C0C12CD12C76017A
:102370001CC040E1C42ED12CE12CF12C16C041E050
:1023800084169406A104B10420F0812C912C5401F0
:1023900093949401B701A60181E00E94DE08892B85
:1023A00099F0C80CD91CEA1CFB1CE091B604F09112
:1023B000B70482889388A488B5888C189D08AE08D5
:1023C000BF08E9F620E001C021E0C80181559C4F1B
:1023D000EFEAF3E03FEF3193E817F907E1F7222343
:1023E00071F01092AF031092B003E091B604F09137
:1023F000B70486898460868B83E00E94820EC801C0
:10240000DDC593FF85CF81E40E94AF0E60E078E0E8
:1024100082E090E00E94A902811103C08FEF8A87B9
:102420005BC6E091B604F091B70486898460868B20
:102430005CC345988A859EEA980F923020F092EB13
:10244000980F923038F4E091B604F091B704968971
:1024500093FF07C08F3309F048C38B81883209F49A
:1024600044C381E40E94AF0EEA85E03509F4F2C06E
:1024700048F4EE3489F008F095C0EF3309F0F3CD5D
:102480008B81CAC2E33509F416C2E73509F4E2C00C
:10249000E23509F0E8CDDEC02090B6043090B704F4
:1024A000F1018689F82FF0745F2EF10182889388FC
:1024B000A488B58885FF03C000E011E002C000E8F1
:1024C00010E0212F33273F872E87412C80E090E0BA
:1024D0007501640130E8C3224BE0441588F09C018B
:1024E0002F5F3F4F2C8B3D8B0E94541EE42DF0E05C
:1024F000E155FC4F808343942C893D89C901ECCF81
:10250000511015C04091B7035091B8036091B903C1
:102510007091BA034C155D056E057F0541F420915D
:10252000B50330E04E855F852417350761F12091B2
:10253000AF03213011F0412CD2CF5E855093B5030B
:102540000093B603552041F08DE2880E84EB981E6F
:10255000A11CB11C0DE710E0F101868985FF06C0C2
:10256000F0E88F0EF1E09F1EA11CB11C980140E025
:1025700050E0C501B4010E9441193093B10320938A
:10258000B2034093B30381E08093B70383E5809364
:10259000B80384E48093B90382E78093BA038CE0A4
:1025A00090E00CC56CE070E08FEA93E00E94FB0EB7
:1025B000811159CD1091B5030091B6032091B30359
:1025C00030E040E050E02F5F3F4F4F4F5F4FA09112
:1025D000AF03B0E00E9478199B01AC01A091B10358
:1025E000B0E0BA2FAA278091B203A80FB11D0E94B4
:1025F00078199B01AC01A12FB0E0BA2FAA27A00F38
:10260000B11D0E947819E091B604F091B7042689B3
:1026100024FD04C0605F7F4F8F4F9F4F25FF04C094
:102620006058714081099109C288D388E488F5888F
:102630006C157D058E059F0511F083E008C081E0D3
:102640008093B504102B113009F0DAC582E0809335
:10265000B504D6C51092B5040B851C85011511056E
:1026600009F4D5C5A091B604B091B7045696FC9173
:10267000F6FD53C00430110578F4480121E0821AB8
:1026800091089694982C882497948794A12CB12C27
:1026900000E8E02EF12C1BC0F5FF04C0E12CFF2464
:1026A000F39403C0A0E8EA2EF12C980140E050E03A
:1026B0002450310941095109D7010E9478194B0171
:1026C0005C0130E8830E31E0931EA11CB11CF4FDC7
:1026D00005C040E1840E911CA11CB11CE23551F4EF
:1026E0009701B501A40180E00E94DE08892B09F45E
:1026F0008EC5DFC0B7018FEA93E00E94FB0E811107
:10270000B2CC4B9984C59701B501A40181E00E9428
:10271000DE08892B09F47BC573C5E23549F060E812
:1027200070E08FEA93E00E94FB0E81119CCC6FC594
:1027300080E890E00E94ED0103301105C8F0E090C0
:10274000B604F090B704F70162897389848995898A
:1027500064587F4F8F4F9F4F2DE730E040E050E0AF
:102760000E94411969010836F1E01F0709F577C099
:10277000C8019695982F8827979587958351904003
:10278000EFEACE2EE3E0DE2E7C012FEFE21AF20A12
:102790000E94541E873011F48C81895FF601819369
:1027A0006F01FFE2CF16F4E0DF0649F2C701ECCF7C
:1027B000093681E0180709F057C060E0F701808909
:1027C00091892C8B3D8B4A8B5B8B0E949606AFEADE
:1027D000B3E080E090E070E23D892C896D91EFEBF1
:1027E000E60FEA3120F0E0EDE60FEA3030F4E82FB2
:1027F000F0E0E155FC4F60838F5F973011F09A3025
:1028000049F4981738F0E82FF0E0E155FC4F708359
:102810008F5FF7CF9F5F9B3009F7EAEBF3E0AFEBF9
:10282000B3E082918E9383E0EF3AF807D1F7EFEBB4
:10283000F3E094E0EF32F90711F01192FACFE0E9FA
:10284000CE16E2E0DE0610F086E401C082E480935A
:10285000AF0381E791E09093B3038093B203309389
:10286000B1032093B00322C00137F1E01F07F0F05D
:102870009801ADE7B0E00E946919AB01BC014D526F
:10288000544B610971092DE730E080E00E94DE08B9
:102890008D37910518F00F5F1F4F02C000E010E068
:1028A00010932C0400932D0480932E0460E8E62EF0
:1028B000F12CC70183C31092B50480E18093AF036C
:1028C000E091B604F091B704868987FF03C090E9D0
:1028D0009093AF0385FF05C09091AF0390629093F2
:1028E000AF0382FF07C09091AF0394609093AF0352
:1028F0008B7F868B4B9B05C08091AF038860809354
:10290000AF038FEF8093B00380EE8093B1031092FA
:10291000B20395C081E40E94AF0E4A854B3D09F495
:1029200076C024EC34E03093B7042093B604842FAF
:1029300090E0FC01E05CF109E034F10508F067C4C7
:10294000EC5CFF4F0C94631900E010E042C20E945F
:10295000F601EB84FC840BEB13E060E0C7010E94FE
:1029600096068823E1F024E00B3A120729F48091BF
:10297000AF038093AB0413C0D801EFEAF3E0819179
:102980008D9333E0EA3BF307D1F74FEFE41AF40AF3
:102990008091B004F8018387045F1F4FDECFAFEA58
:1029A000B3E0EBEBF3E081918D9324E0EC3AF20796
:1029B000D1F781EF90E002C38B858A3F08F027C4EE
:1029C0008B831A828FE29BE00197F1F700C083E4CA
:1029D0000E94AF0E08CC8B858C8312C4EFE1F1E02E
:1029E000AFEAB3E081918D9391E0E833F907D1F735
:1029F000A091B604B091B704E8ECF3E08D91819317
:102A000023E0EF3DF207D1F780E390E0D7C2E091F9
:102A1000B604F091B70486898093AF0381E090E01B
:102A2000CDC26B857C8580E090E00E94FE046093BF
:102A3000AF037093B0038093B1039093B20384E02B
:102A400090E0BCC264E070E08FEA93E00E94FB0E6D
:102A5000811109CB6091AF037091B0038091B103F4
:102A60009091B2036D837E838F8398870E94CC04FC
:102A7000C7C36D817E818F8198850E94CC048FE2CF
:102A80009BE00197F1F700C083E40E94AF0EEFE2F4
:102A9000FBE03197F1F700C060E072E08BEA91E073
:102AA0000E94860E182F60E072E08BEA91E00E948F
:102AB000BD0E812FB2C36D817E818F8198850E946A
:102AC000CC0440E160E072E08BEA91E00E94D10E1C
:102AD000EBEFFDE03197F1F700C0882341F06D8105
:102AE0007E818F8198850E94CC048EE496C381E418
:102AF0000E94AF0E80E00E94A104811188C380C3B0
:102B00008B85882309F47CC32EE431E0AFEAB3E07F
:102B1000F9019E2F921B981708F04FC294919D9334
:102B20003196F7CF0E94C3048FE29BE00197F1F743
:102B300000C083E40E94AF0E8B858111F4C9ACC93B
:102B4000EB85E53008F063C397E1E99FF0011124BC
:102B5000E85CFE4F86898E7F868B52C3EB85E5301D
:102B600008F055C327E1E29FF0011124E85CFE4F15
:102B7000868980FD07C08EE090E00E94ED018EE026
:102B800090E01CC2F093B704E093B6048481958171
:102B9000A681B7818093C8049093C904A093CA0406
:102BA000B093CB04908981899B878C8760E08B856B
:102BB0009C850E949606F82E2EC06BE070E089EB93
:102BC00094E00E94FB0E81114ECA8C85882309F483
:102BD00017C38B85806F8A871C861B860B851C8597
:102BE00060E0C8010E949606882309F4C7C1A9EBDA
:102BF000B4E0EFEAF3E08D91811195C1319624E0C4
:102C0000A43CB207C1F78A85803F08F091C183EEEA
:102C10008A87FF24F3942091B0042093BA038A8515
:102C2000833E61F4E091B604F091B7048089918904
:102C30009093BC038093BB031EE09DC0853E09F0CA
:102C400099C0E091B604F091B70482899389A48970
:102C5000B5898093BB039093BC03A093BD03B0934D
:102C6000BE038091B104E090B2048093BF03E09270
:102C7000C0038091B3049091B4049093C2038093F5
:102C8000C103A3ECB3E080E28D9333E0A13EB30730
:102C9000D9F76289738984899589287119F420E3A9
:102CA0002093CC030CEC13E06115710581059105AF
:102CB00059F02AE030E040E050E00E9441196063A2
:102CC000F8016083B901CA0101501109F3E0023C27
:102CD0001F0751F78DE28093D2038093D5038AE3D7
:102CE0008093DB038093DE03E694E88A198A88895F
:102CF00099898454984F64E670E00E942D19962FAC
:102D0000182F6FE1892F0E94FA0161E2812F0E9442
:102D1000FA018091B1049091B20445E096958795AF
:102D20004A95E1F764E28F700E94FA018091B10444
:102D300067E28F710E94FA018091B4046AE286957D
:102D4000869586950E94FA018091B3049091B4040F
:102D500055E0969587955A95E1F76DE28F730E943D
:102D6000FA018091B3048F7160E3880F0E94FA0129
:102D700012E301C01CE0F11004C082E390E00E9465
:102D8000ED01812F1AC161E08B859C850E9496061A
:102D9000811103C080E090E008C0EFEAF3E080E03A
:102DA00090E0019621912111FCCF8F3F910509F010
:102DB00030F4FC01E155FC4F10820196F6CF2A85D4
:102DC000265E80E091E002C0959587952A95E2F70E
:102DD000F5C060E0C8010E949606882319F00F5FD5
:102DE0001F4FF7CF1093B0030093AF0382E090E042
:102DF000E5C08B858150843110F084E18B875B8442
:102E0000C090C804D090C904E090CA04F090CB04EC
:102E1000312C3FE2432E60E080E090E00E94960675
:102E2000E091B604F091B704882309F450C0809172
:102E3000B00484FF4CC08091AF038E3209F047C0CC
:102E40008091B0038E3209F042C0511007C0A32D0B
:102E5000B0E0A155BC4F8FE38C9339C05A94848065
:102E60009580A680B78080819181A281B38184837F
:102E70009583A683B78300E010E060E0C8010E945C
:102E80009606811104C0802F0E94820EC4CFE0916B
:102E9000B604F091B70480819181A281B381881634
:102EA0009906AA06BB0681F424EF320EE32DF0E06A
:102EB000E155FC4F4192AFEAB3E08D91819333E04D
:102EC000AA3BB307D1F7A7CF0F5F1F4FD6CFC4825E
:102ED000D582E682F782232D30E080E090E0B901D0
:102EE00061557C4FFB01E80FF91F4081FC01E15562
:102EF000FC4F40830196AC01420F531F41155140D6
:102F000089F7219519F41092AF0321E0E22FF0E048
:102F1000E155FC4F10822F5FC9F78B85FCE08F9F36
:102F2000C00111244BC09081891709F467CE23C0DA
:102F30008F7090E0853091050CF0CEC027E1289F7E
:102F4000F001299FF00D1124E85CFE4FF093B704C7
:102F5000E093B6048091C8049091C904A091CA047A
:102F6000B091CB0484839583A683B78360E0C801C6
:102F70000E949606B1C00F5F1F4F32CE8A85803FF8
:102F800008F045C1F8CD8B85853020F093B1937062
:102F900084E0891B89830E94D90132C18B859C857D
:102FA000FE013196E90FF11DAFEAB3E0AD01480F24
:102FB000942F21912D939A13FCCF90E00E940F0F34
:102FC00052C860E080E090E00E949606811104C043
:102FD0008B858111D0CD14C18091B00484FFF8CFCE
:102FE0008091AF038E32A1F78091B0038E3281F7CA
:102FF000E091B604F091B704C480D580E680F780F4
:1030000080819181A281B3810097A105B10541F42E
:103010008091340190913501A0913601B091370132
:1030200084839583A683B7838B85882389F200E008
:1030300010E060E0C8010E949606882349F2E09102
:10304000B604F091B70480819181A281B381C81642
:10305000D906EA06FB0609F4DACD0F5F1F4FE9CF68
:103060008091340190913501A0913601B0913701E2
:103070008093C8049093C904A093CA04B093CB046E
:1030800060E080E090E00E949606BAC04F70842F06
:1030900090E085309105C4F427E1289FF001299F35
:1030A000F00D1124E85CFE4FF093B704E093B604F2
:1030B0008091C8049091C904A091CA04B091CB0436
:1030C00084839583A683B78360E08B859C850E946B
:1030D0009606882309F49BC08091B004E091B60461
:1030E000F091B70484FF09C080819181A281B381EE
:1030F00084839583A683B7837CC080819181A281DC
:10310000B38180879187A287B38714861586168638
:10311000178626892870268B8091B703813409F0A1
:1031200045C08091B803843509F061C08091B9032E
:10313000823509F05CC020E130E040E050E0BA01A7
:1031400080E00E94DE080091B6041091B704F801F7
:103150009689892F8160868B8091B4032091B30377
:10316000822B813011F49162968BF8016289738908
:10317000848995896051710981099109F688F5FE64
:1031800005C020E031E040E050E004C020E830E03D
:1031900040E050E00E944119213D32404105510577
:1031A00040F18F2D8068F801868B23C08835F9F4B3
:1031B0008091B8038634D9F48091B9038434B9F48A
:1031C000822F8161868B82899389A489B589813018
:1031D00038E6930731E0A307B10558F081309840F5
:1031E000A240B10510F4216903C0216301C0216C24
:1031F000268BE091B604F091B704868983FD81C8DF
:103200008FE29BE00197F1F700C083E406C0EFE294
:10321000FBE03197F1F700C085E40E94AF0E0C94FB
:103220003310DB018F939F930E947819BF91AF9168
:10323000A29F800D911DA39F900DB29F900D112410
:103240000895991B79E004C0991F961708F0961B02
:10325000881F7A95C9F780950895AA1BBB1B51E179
:1032600007C0AA1FBB1FA617B70710F0A61BB70BF6
:10327000881F991F5A95A9F780959095BC01CD019B
:103280000895A1E21A2EAA1BBB1BFD010DC0AA1FA7
:10329000BB1FEE1FFF1FA217B307E407F50720F0BF
:1032A000A21BB30BE40BF50B661F771F881F991F3A
:1032B0001A9469F760957095809590959B01AC0183
:1032C000BD01CF010895EE0FFF1F0590F491E02D91
:1032D0000994A29FB001B39FC001A39F700D811DEF
:1032E0001124911DB29F700D811D1124911D08950F
:1032F0000E946919A59F900DB49F900DA49F800D09
:10330000911D11240895FB01DC014150504048F00B
:1033100001900D920020C9F701C01D92415050400C
:10332000E0F70895AEE0B0E0E8E9F9E10C947D1F24
:103330000D891E8986E08C831A8309838FEF9FE7AE
:103340009E838D83AE01475E5F4F6F89788DCE017E
:1033500001960E94CD19EF81F885E00FF11F1082D0
:103360002E96E4E00C94991FAEE0B0E0EAEBF9E1B0
:103370000C947F1F85E08C838B899C899A83898339
:10338000AE01495E5F4F6D897E89CE0101960E9434
:103390001D1D2E96E2E00C949B1FACE0B0E0E3ED27
:1033A000F9E10C946F1F7C016B018A01FC0117820B
:1033B0001682838181FFBDC1CE0101964C01F701C8
:1033C0009381F60193FD859193FF81916F0188238D
:1033D00009F4ABC1853239F493FD859193FF819156
:1033E0006F01853229F4B70190E00E94C31EE7CF38
:1033F000512C312C20E02032A0F48B3269F030F4D3
:10340000803259F0833269F420612CC08D3239F05A
:10341000803339F4216026C02260246023C02860F4
:1034200021C027FD27C030ED380F3A3078F426FF51
:1034300006C0FAE05F9E300D1124532E13C08AE0BF
:10344000389E300D1124332E20620CC08E3221F4B0
:1034500026FD6BC1206406C08C3611F4206802C0C2
:10346000883641F4F60193FD859193FF81916F01B8
:103470008111C1CF982F9F7D9554933028F40C5F14
:103480001F4FFFE3F9830DC0833631F0833771F0AE
:10349000833509F05BC022C0F801808189830E5F0B
:1034A0001F4F44244394512C540115C03801F2E0BD
:1034B0006F0E711CF801A080B18026FF03C0652D3E
:1034C00070E002C06FEF7FEFC5012C870E947A1E6B
:1034D0002C0183012C852F77222E17C03801F2E0B2
:1034E0006F0E711CF801A080B18026FF03C0652D0E
:1034F00070E002C06FEF7FEFC5012C870E946F1E46
:103500002C012C852068222E830123FC1BC0832DD7
:1035100090E048165906B0F4B70180E290E00E94AE
:10352000C31E3A94F4CFF50127FC859127FE8191C3
:103530005F01B70190E00E94C31E31103A94F1E0A0
:103540004F1A51084114510471F7E5C0843611F047
:10355000893639F5F80127FF07C0608171818281C2
:1035600093810C5F1F4F08C060817181882777FDB0
:103570008095982F0E5F1F4F2F76B22E97FF09C0B0
:1035800090958095709561957F4F8F4F9F4F2068E4
:10359000B22E2AE030E0A4010E940E1FA82EA81827
:1035A00044C0853729F42F7EB22E2AE030E025C0B2
:1035B000F22FF97FBF2E8F36C1F018F4883579F0DD
:1035C000B4C0803719F0883721F0AFC02F2F2061A9
:1035D000B22EB4FE0DC08B2D8460B82E09C024FF1E
:1035E0000AC09F2F9660B92E06C028E030E005C0C3
:1035F00020E130E002C020E132E0F801B7FE07C070
:1036000060817181828193810C5F1F4F06C0608150
:10361000718180E090E00E5F1F4FA4010E940E1F99
:10362000A82EA818FB2DFF77BF2EB6FE0BC02B2DA2
:103630002E7FA51450F4B4FE0AC0B2FC08C02B2D96
:103640002E7E05C07A2C2B2D03C07A2C01C0752C40
:1036500024FF0DC0FE01EA0DF11D8081803311F4BD
:10366000297E09C022FF06C07394739404C0822F80
:10367000867809F0739423FD13C020FF06C05A2CEE
:10368000731418F4530C5718732C731468F4B7019F
:1036900080E290E02C870E94C31E73942C85F5CFA6
:1036A000731410F4371801C0312C24FF12C0B70175
:1036B00080E390E02C870E94C31E2C8522FF17C058
:1036C00021FF03C088E590E002C088E790E0B701E1
:1036D0000CC0822F867859F021FD02C080E201C023
:1036E0008BE227FD8DE2B70190E00E94C31EA51476
:1036F00038F4B70180E390E00E94C31E5A94F7CFDC
:10370000AA94F401EA0DF11D8081B70190E00E94B6
:10371000C31EA110F5CF332009F451CEB70180E2CA
:1037200090E00E94C31E3A94F6CFF70186819781FC
:1037300002C08FEF9FEF2C96E2E10C948B1F20FDCF
:1037400009C0FC0123FD05C022FF02C07383628310
:1037500051834083089544FD10C046FD10C0DB0135
:10376000FC01AA0FBB1FEE1FFF1F1094D1F76A0FB9
:103770007B1F8E1F9F1F31E003C033E001C034E088
:10378000660F771F881F991F3150D1F7620F711D87
:10379000811D911D08950F931F93CF93DF938C018B
:1037A000C8010E94851EEC0197FD08C00E945C1EA6
:1037B000892BB1F7B801CE010E94F51ECE01DF9131
:1037C000CF911F910F9108958F929F92AF92CF92B8
:1037D000DF92EF92FF920F931F93CF93DF93EC0151
:1037E000A62E4A01022F0E94851EAC0155274B329E
:1037F000510521F04D32510551F40068AA9411F49D
:1038000080E067C0CE010E94851E97FDF9CF102F82
:103810001D7F302F307301F58033F1F4FF24FA94CB
:10382000FA0C09F442C0CE010E94851E97FD3DC0EE
:10383000382F3F7D383551F41264AA94AA94A9F127
:10384000CE010E94851E97FF07C02FC006FF02C051
:10385000126001C01261AF2CC12CD12C760120ED79
:10386000280F283080F014FF04C0BE010E94F51E0E
:1038700019C02A3040F016FFF8CF2F7D3FEE320FEF
:10388000363098F72750412FC701B6010E94AB1B75
:103890006B017C011260AA9459F0CE010E94851E32
:1038A00097FFDDCF11FD04C0ABCFC12CD12C760129
:1038B00017FF08C0F094E094D094C094C11CD11CB0
:1038C000E11CF11C212FB701A601C4010E949F1B1E
:1038D00081E0DF91CF911F910F91FF90EF90DF90EA
:1038E000CF90AF909F908F900895A1E2B0E0EBE76A
:1038F000FCE10C94741F5C017A018E010F5F1F4F75
:10390000680180E2D8011D928A95E9F7F50173807C
:1039100040E050E0812CB0E0912C81E090E0F90192
:1039200073FCA59173FEA1918F017A2F9F01A111C4
:1039300003C080E090E07DC0AE3519F4411551051B
:1039400059F1E92DF0E0E417F5073CF4AD3569F1E4
:10395000AD3219F4BB2319F103C0B11101C08A2E95
:10396000E72FE695E695E69586010E0F111DF80105
:10397000A72FA7708C0102C0000F111FAA95E2F7B4
:10398000D801B081BA2BB083781559F0781510F4AE
:103990007F5FE6CF7150E4CF9924939403C0B1E0E8
:1039A00001C0B0E04F5F5F4FBACFBB2319F08E81EB
:1039B00080628E83911003C09924939415C0F60100
:1039C000CE018196208120952193E817F907D1F740
:1039D000F3CFE114F10429F0D7018C93F70131966C
:1039E0007F01615001F1912CC50169A30E94851EE0
:1039F00069A197FD16C0282F269526952695F601D4
:103A0000E20FF11D208130E0AC014770552702C064
:103A1000359527954A95E2F720FDDBCFB5010E9449
:103A2000F51E911086CFE114F10411F0D7011C921C
:103A3000C801A196EDE00C94901F4F925F927F9287
:103A40008F929F92AF92BF92CF92DF92EF92FF92AE
:103A50000F931F93CF93DF931F92CDB7DEB78C01E7
:103A60002B017A01FC0117821682A12CF801D38068
:103A7000F201D3FC8591D3FE8191382F2F01882349
:103A800009F4FCC090E039830E945C1E3981892BC7
:103A900021F0C8010E94CB1BE9CF353241F4F2017D
:103AA000D3FC3591D3FE31912F01353269F4C80131
:103AB00039830E94851E398197FDDEC03817B1F227
:103AC000B8010E94F51EDAC03A3241F4D3FC3591B8
:103AD000D3FE31912F01BB24B39401C0B12C712CC2
:103AE00020ED230F2A3090F4FB2DF260BF2E672DBE
:103AF00070E080E090E040E20E94AB1B762EF20185
:103B0000D3FC3591D3FE31912F01EACFB1FE03C032
:103B1000711003C0B3C077247A94383619F03C365C
:103B200061F014C0F201D3FC3591D3FE31912F0125
:103B3000383661F4FB2DF860BF2E8B2D8460B82ED3
:103B4000F201D3FC3591D3FE31912F01332309F4D7
:103B500095C0632F70E087E693E039830E94641E6E
:103B60003981892B09F48AC0B0FC07C0F701C080F5
:103B7000D180C70102967C0102C0C12CD12C3E36F7
:103B800051F4F8014681578160E070E02B2DC601A9
:103B90000E949F1B6BCF3336A1F4B1FC02C0772487
:103BA0007394C8010E94851E97FD66C0C114D1049C
:103BB00029F0F6018083C60101966C017A9489F799
:103BC00057C03B3559F49201A601672DC8010E94E8
:103BD000751C2C01009709F04BC045C0C801398302
:103BE0000E94CB1B398197FD47C03F3669F128F40D
:103BF000343631F1393679F12BC0333769F0353746
:103C0000F9F026C0C114D10429F0F6018082C60162
:103C100001966C017A9471F0C8010E94851E4C01D6
:103C200097FD08C00E945C1E892B61F3B801C40196
:103C30000E94F51EC114D104D9F0F601108218C0FB
:103C4000FB2DF062BF2E07C08B2D8061B82E03C004
:103C50009B2D9064B92E2B2DA601672DC8010E94C3
:103C6000E41B811105C0F8018381807329F406C02B
:103C7000B0FCFCCEA394FACEAA2019F08A2D90E0D5
:103C800002C08FEF9FEF0F90DF91CF911F910F91A7
:103C9000FF90EF90DF90CF90BF90AF909F908F906C
:103CA0007F905F904F900895F999FECF92BD81BDAE
:103CB000F89A992780B5089591110EC1803219F0B4
:103CC00089508550D0F70895FC010590061621F023
:103CD0000020D9F7C00108953197CF010895FC0164
:103CE0000590615070400110D8F7809590958E0F27
:103CF0009F1F0895FC016150704001900110D8F79A
:103D0000809590958E0F9F1F0895CF93DF93EC01C0
:103D10002B8120FF33C026FF0AC02F7B2B838E818F
:103D20009F8101969F838E838A8190E029C022FF24
:103D30000FC0E881F9818081992787FD90950097D0
:103D400019F420622B831AC03196F983E8830EC0E0
:103D5000EA85FB85099597FF09C02B81019611F42F
:103D600080E101C080E2822B8B8308C02E813F81DD
:103D70002F5F3F4F3F832E83992702C08FEF9FEF26
:103D8000DF91CF9108950F931F93CF93DF93182F57
:103D9000092FEB018B8181FD03C08FEF9FEF20C0C6
:103DA00082FF10C04E815F812C813D8142175307F5
:103DB0007CF4E881F9819F012F5F3F4F398328838D
:103DC000108306C0E885F985812F0995892B29F78D
:103DD0002E813F812F5F3F4F3F832E83812F902F76
:103DE000DF91CF911F910F910895FB01238120FF57
:103DF00012C026FD10C08F3F3FEF930761F0828312
:103E00002F7D206423832681378121503109378318
:103E10002683992708958FEF9FEF0895FA01AA2727
:103E2000283051F1203181F1E8946F936E7F6E5FFD
:103E30007F4F8F4F9F4FAF4FB1E03ED0B4E03CD0AB
:103E4000670F781F891F9A1FA11D680F791F8A1F8E
:103E5000911DA11D6A0F711D811D911DA11D20D0F5
:103E600009F468943F912AE0269F11243019305DAF
:103E70003193DEF6CF010895462F4770405D4193A0
:103E8000B3E00FD0C9F7F6CF462F4F70405D4A33ED
:103E900018F0495D31FD4052419302D0A9F7EACFB5
:103EA000B4E0A6959795879577956795BA95C9F7E4
:103EB00000976105710508959B01AC010A2E0694D7
:103EC0005795479537952795BA95C9F7620F731F90
:103ED000841F951FA01D08959927882708952F9264
:103EE0003F924F925F926F927F928F929F92AF928A
:103EF000BF92CF92DF92EF92FF920F931F93CF93D7
:103F0000DF93CDB7DEB7CA1BDB0B0FB6F894DEBF6D
:103F10000FBECDBF09942A88398848885F846E8493
:103F20007D848C849B84AA84B984C884DF80EE80DD
:103F3000FD800C811B81AA81B981CE0FD11D0FB6E6
:103F4000F894DEBF0FBECDBFED010895F894FFCF0A
:103F500053444E472568750053444E47252E34750B
:023F600000005F
:0873F80053444E47050100005B
:00000001FF
